{
  "_format": "hh-sol-artifact-1",
  "contractName": "UserId",
  "sourceName": "contracts/userId.sol",
  "abi": [
    {
      "anonymous": false,
      "inputs": [
        {
          "indexed": false,
          "internalType": "bool",
          "name": "verified",
          "type": "bool"
        }
      ],
      "name": "AgeVerified",
      "type": "event"
    },
    {
      "anonymous": false,
      "inputs": [
        {
          "indexed": false,
          "internalType": "uint256",
          "name": "amount",
          "type": "uint256"
        },
        {
          "indexed": true,
          "internalType": "address",
          "name": "userList",
          "type": "address"
        }
      ],
      "name": "idCreated",
      "type": "event"
    },
    {
      "inputs": [
        {
          "internalType": "address",
          "name": "",
          "type": "address"
        }
      ],
      "name": "UserStruct",
      "outputs": [
        {
          "internalType": "string",
          "name": "fname",
          "type": "string"
        },
        {
          "internalType": "string",
          "name": "lname",
          "type": "string"
        },
        {
          "components": [
            {
              "internalType": "uint256",
              "name": "year",
              "type": "uint256"
            },
            {
              "internalType": "uint256",
              "name": "month",
              "type": "uint256"
            },
            {
              "internalType": "uint256",
              "name": "day",
              "type": "uint256"
            }
          ],
          "internalType": "struct UserId.DOB",
          "name": "dob",
          "type": "tuple"
        },
        {
          "internalType": "string",
          "name": "country",
          "type": "string"
        },
        {
          "internalType": "bool",
          "name": "isVerified",
          "type": "bool"
        },
        {
          "internalType": "uint256",
          "name": "createTime",
          "type": "uint256"
        },
        {
          "internalType": "uint256",
          "name": "index",
          "type": "uint256"
        },
        {
          "internalType": "bool",
          "name": "ageVerified",
          "type": "bool"
        }
      ],
      "stateMutability": "view",
      "type": "function"
    },
    {
      "inputs": [
        {
          "internalType": "address",
          "name": "userAddress",
          "type": "address"
        },
        {
          "internalType": "string",
          "name": "fname",
          "type": "string"
        },
        {
          "internalType": "string",
          "name": "lname",
          "type": "string"
        },
        {
          "internalType": "uint256",
          "name": "year",
          "type": "uint256"
        },
        {
          "internalType": "uint256",
          "name": "month",
          "type": "uint256"
        },
        {
          "internalType": "uint256",
          "name": "day",
          "type": "uint256"
        },
        {
          "internalType": "string",
          "name": "country",
          "type": "string"
        }
      ],
      "name": "createUserId",
      "outputs": [
        {
          "internalType": "bool",
          "name": "success",
          "type": "bool"
        }
      ],
      "stateMutability": "nonpayable",
      "type": "function"
    },
    {
      "inputs": [
        {
          "internalType": "address",
          "name": "userAddress",
          "type": "address"
        }
      ],
      "name": "isVerified",
      "outputs": [
        {
          "internalType": "bool",
          "name": "isIndeed",
          "type": "bool"
        }
      ],
      "stateMutability": "view",
      "type": "function"
    },
    {
      "inputs": [
        {
          "internalType": "address",
          "name": "userAddress",
          "type": "address"
        },
        {
          "internalType": "string",
          "name": "country",
          "type": "string"
        }
      ],
      "name": "locationVerified",
      "outputs": [
        {
          "internalType": "bool",
          "name": "success",
          "type": "bool"
        }
      ],
      "stateMutability": "view",
      "type": "function"
    },
    {
      "inputs": [],
      "name": "markleRoot",
      "outputs": [
        {
          "internalType": "bytes32",
          "name": "",
          "type": "bytes32"
        }
      ],
      "stateMutability": "view",
      "type": "function"
    },
    {
      "inputs": [
        {
          "internalType": "uint256",
          "name": "",
          "type": "uint256"
        }
      ],
      "name": "userList",
      "outputs": [
        {
          "internalType": "address",
          "name": "",
          "type": "address"
        }
      ],
      "stateMutability": "view",
      "type": "function"
    },
    {
      "inputs": [
        {
          "internalType": "address",
          "name": "userAddress",
          "type": "address"
        },
        {
          "internalType": "uint256",
          "name": "ageLimit",
          "type": "uint256"
        }
      ],
      "name": "verifyAgeLimit",
      "outputs": [
        {
          "internalType": "bool",
          "name": "verify",
          "type": "bool"
        }
      ],
      "stateMutability": "nonpayable",
      "type": "function"
    },
    {
      "inputs": [
        {
          "internalType": "address",
          "name": "",
          "type": "address"
        }
      ],
      "name": "whitelistClaimed",
      "outputs": [
        {
          "internalType": "bool",
          "name": "",
          "type": "bool"
        }
      ],
      "stateMutability": "view",
      "type": "function"
    },
    {
      "inputs": [
        {
          "internalType": "bytes32[]",
          "name": "_merkaleProof",
          "type": "bytes32[]"
        }
      ],
      "name": "whitelistMint",
      "outputs": [],
      "stateMutability": "nonpayable",
      "type": "function"
    }
  ],
  "bytecode": "0x60806040527f8ae4777407987470bb4c7cde049e112c915237cb4c3c248b605355ddbac307a360001b60035534801561003757600080fd5b50611ca1806100476000396000f3fe608060405234801561001057600080fd5b50600436106100935760003560e01c8063987606651161006657806398760665146101445780639f4216e81461017b578063a1a049a7146101ab578063b9209e33146101c9578063db4bec44146101f957610093565b8063147e6d9f14610098578063372f657c146100c857806346ef80fc146100e45780634c93c11f14610114575b600080fd5b6100b260048036038101906100ad9190610f2d565b610229565b6040516100bf919061103e565b60405180910390f35b6100e260048036038101906100dd9190611157565b61054d565b005b6100fe60048036038101906100f991906111a0565b6106ad565b60405161010b919061103e565b60405180910390f35b61012e600480360381019061012991906111fc565b61079a565b60405161013b919061103e565b60405180910390f35b61015e6004803603810190610159919061123c565b61093b565b604051610172989796959493929190611348565b60405180910390f35b610195600480360381019061019091906113dd565b610b5d565b6040516101a29190611419565b60405180910390f35b6101b3610b9c565b6040516101c09190611443565b60405180910390f35b6101e360048036038101906101de919061123c565b610ba2565b6040516101f0919061103e565b60405180910390f35b610213600480360381019061020e919061123c565b610c70565b604051610220919061103e565b60405180910390f35b600061023488610ba2565b15610274576040517f08c379a000000000000000000000000000000000000000000000000000000000815260040161026b906114d0565b60405180910390fd5b86600160008a73ffffffffffffffffffffffffffffffffffffffff1673ffffffffffffffffffffffffffffffffffffffff16815260200190815260200160002060000190816102c391906116fc565b5085600160008a73ffffffffffffffffffffffffffffffffffffffff1673ffffffffffffffffffffffffffffffffffffffff168152602001908152602001600020600101908161031391906116fc565b50604051806060016040528086815260200185815260200184815250600160008a73ffffffffffffffffffffffffffffffffffffffff1673ffffffffffffffffffffffffffffffffffffffff16815260200190815260200160002060020160008201518160000155602082015181600101556040820151816002015590505081600160008a73ffffffffffffffffffffffffffffffffffffffff1673ffffffffffffffffffffffffffffffffffffffff16815260200190815260200160002060050190816103e191906116fc565b5060018060008a73ffffffffffffffffffffffffffffffffffffffff1673ffffffffffffffffffffffffffffffffffffffff16815260200190815260200160002060060160006101000a81548160ff0219169083151502179055506000889080600181540180825580915050600190039060005260206000200160009091909190916101000a81548173ffffffffffffffffffffffffffffffffffffffff021916908373ffffffffffffffffffffffffffffffffffffffff16021790555060016000805490506104b191906117fd565b600160008a73ffffffffffffffffffffffffffffffffffffffff1673ffffffffffffffffffffffffffffffffffffffff1681526020019081526020016000206008018190555042600160008a73ffffffffffffffffffffffffffffffffffffffff1673ffffffffffffffffffffffffffffffffffffffff1681526020019081526020016000206007018190555060019050979650505050505050565b600260003373ffffffffffffffffffffffffffffffffffffffff1673ffffffffffffffffffffffffffffffffffffffff16815260200190815260200160002060009054906101000a900460ff16156105da576040517f08c379a00000000000000000000000000000000000000000000000000000000081526004016105d19061187d565b60405180910390fd5b6000336040516020016105ed9190611419565b6040516020818303038152906040528051906020012090506106128260035483610c90565b610651576040517f08c379a0000000000000000000000000000000000000000000000000000000008152600401610648906118e9565b60405180910390fd5b6001600260003373ffffffffffffffffffffffffffffffffffffffff1673ffffffffffffffffffffffffffffffffffffffff16815260200190815260200160002060006101000a81548160ff0219169083151502179055505050565b60006106b883610ba2565b6106f7576040517f08c379a00000000000000000000000000000000000000000000000000000000081526004016106ee9061197b565b60405180910390fd5b8160405160200161070891906119d7565b60405160208183030381529060405280519060200120600160008573ffffffffffffffffffffffffffffffffffffffff1673ffffffffffffffffffffffffffffffffffffffff1681526020019081526020016000206005016040516020016107709190611a71565b604051602081830303815290604052805190602001201461079057600080fd5b6001905092915050565b60006107a583610ba2565b6107e4576040517f08c379a00000000000000000000000000000000000000000000000000000000081526004016107db90611ad4565b60405180910390fd5b60006107b26301e187e0426107f99190611b23565b6108039190611b54565b90506000600160008673ffffffffffffffffffffffffffffffffffffffff1673ffffffffffffffffffffffffffffffffffffffff168152602001908152602001600020600201600001548261085891906117fd565b90508381101561089d576040517f08c379a000000000000000000000000000000000000000000000000000000000815260040161089490611bd4565b60405180910390fd5b7f3d8a5b8ac1f407033049f627a1fc09b7ea96f79b479d5a66001261f49ee06e0b60016040516108cd919061103e565b60405180910390a160018060008773ffffffffffffffffffffffffffffffffffffffff1673ffffffffffffffffffffffffffffffffffffffff16815260200190815260200160002060090160006101000a81548160ff02191690831515021790555060019250505092915050565b600160205280600052604060002060009150905080600001805461095e9061151f565b80601f016020809104026020016040519081016040528092919081815260200182805461098a9061151f565b80156109d75780601f106109ac576101008083540402835291602001916109d7565b820191906000526020600020905b8154815290600101906020018083116109ba57829003601f168201915b5050505050908060010180546109ec9061151f565b80601f0160208091040260200160405190810160405280929190818152602001828054610a189061151f565b8015610a655780601f10610a3a57610100808354040283529160200191610a65565b820191906000526020600020905b815481529060010190602001808311610a4857829003601f168201915b50505050509080600201604051806060016040529081600082015481526020016001820154815260200160028201548152505090806005018054610aa89061151f565b80601f0160208091040260200160405190810160405280929190818152602001828054610ad49061151f565b8015610b215780601f10610af657610100808354040283529160200191610b21565b820191906000526020600020905b815481529060010190602001808311610b0457829003601f168201915b5050505050908060060160009054906101000a900460ff16908060070154908060080154908060090160009054906101000a900460ff16905088565b60008181548110610b6d57600080fd5b906000526020600020016000915054906101000a900473ffffffffffffffffffffffffffffffffffffffff1681565b60035481565b60008060008054905003610bb95760009050610c6b565b8173ffffffffffffffffffffffffffffffffffffffff166000600160008573ffffffffffffffffffffffffffffffffffffffff1673ffffffffffffffffffffffffffffffffffffffff1681526020019081526020016000206008015481548110610c2657610c25611bf4565b5b9060005260206000200160009054906101000a900473ffffffffffffffffffffffffffffffffffffffff1673ffffffffffffffffffffffffffffffffffffffff161490505b919050565b60026020528060005260406000206000915054906101000a900460ff1681565b600082610c9d8584610ca7565b1490509392505050565b60008082905060005b8451811015610cf257610cdd82868381518110610cd057610ccf611bf4565b5b6020026020010151610cfd565b91508080610cea90611c23565b915050610cb0565b508091505092915050565b6000818310610d1557610d108284610d28565b610d20565b610d1f8383610d28565b5b905092915050565b600082600052816020526040600020905092915050565b6000604051905090565b600080fd5b600080fd5b600073ffffffffffffffffffffffffffffffffffffffff82169050919050565b6000610d7e82610d53565b9050919050565b610d8e81610d73565b8114610d9957600080fd5b50565b600081359050610dab81610d85565b92915050565b600080fd5b600080fd5b6000601f19601f8301169050919050565b7f4e487b7100000000000000000000000000000000000000000000000000000000600052604160045260246000fd5b610e0482610dbb565b810181811067ffffffffffffffff82111715610e2357610e22610dcc565b5b80604052505050565b6000610e36610d3f565b9050610e428282610dfb565b919050565b600067ffffffffffffffff821115610e6257610e61610dcc565b5b610e6b82610dbb565b9050602081019050919050565b82818337600083830152505050565b6000610e9a610e9584610e47565b610e2c565b905082815260208101848484011115610eb657610eb5610db6565b5b610ec1848285610e78565b509392505050565b600082601f830112610ede57610edd610db1565b5b8135610eee848260208601610e87565b91505092915050565b6000819050919050565b610f0a81610ef7565b8114610f1557600080fd5b50565b600081359050610f2781610f01565b92915050565b600080600080600080600060e0888a031215610f4c57610f4b610d49565b5b6000610f5a8a828b01610d9c565b975050602088013567ffffffffffffffff811115610f7b57610f7a610d4e565b5b610f878a828b01610ec9565b965050604088013567ffffffffffffffff811115610fa857610fa7610d4e565b5b610fb48a828b01610ec9565b9550506060610fc58a828b01610f18565b9450506080610fd68a828b01610f18565b93505060a0610fe78a828b01610f18565b92505060c088013567ffffffffffffffff81111561100857611007610d4e565b5b6110148a828b01610ec9565b91505092959891949750929550565b60008115159050919050565b61103881611023565b82525050565b6000602082019050611053600083018461102f565b92915050565b600067ffffffffffffffff82111561107457611073610dcc565b5b602082029050602081019050919050565b600080fd5b6000819050919050565b61109d8161108a565b81146110a857600080fd5b50565b6000813590506110ba81611094565b92915050565b60006110d36110ce84611059565b610e2c565b905080838252602082019050602084028301858111156110f6576110f5611085565b5b835b8181101561111f578061110b88826110ab565b8452602084019350506020810190506110f8565b5050509392505050565b600082601f83011261113e5761113d610db1565b5b813561114e8482602086016110c0565b91505092915050565b60006020828403121561116d5761116c610d49565b5b600082013567ffffffffffffffff81111561118b5761118a610d4e565b5b61119784828501611129565b91505092915050565b600080604083850312156111b7576111b6610d49565b5b60006111c585828601610d9c565b925050602083013567ffffffffffffffff8111156111e6576111e5610d4e565b5b6111f285828601610ec9565b9150509250929050565b6000806040838503121561121357611212610d49565b5b600061122185828601610d9c565b925050602061123285828601610f18565b9150509250929050565b60006020828403121561125257611251610d49565b5b600061126084828501610d9c565b91505092915050565b600081519050919050565b600082825260208201905092915050565b60005b838110156112a3578082015181840152602081019050611288565b60008484015250505050565b60006112ba82611269565b6112c48185611274565b93506112d4818560208601611285565b6112dd81610dbb565b840191505092915050565b6112f181610ef7565b82525050565b60608201600082015161130d60008501826112e8565b50602082015161132060208501826112e8565b50604082015161133360408501826112e8565b50505050565b61134281610ef7565b82525050565b6000610140820190508181036000830152611363818b6112af565b90508181036020830152611377818a6112af565b905061138660408301896112f7565b81810360a083015261139881886112af565b90506113a760c083018761102f565b6113b460e0830186611339565b6113c2610100830185611339565b6113d061012083018461102f565b9998505050505050505050565b6000602082840312156113f3576113f2610d49565b5b600061140184828501610f18565b91505092915050565b61141381610d73565b82525050565b600060208201905061142e600083018461140a565b92915050565b61143d8161108a565b82525050565b60006020820190506114586000830184611434565b92915050565b7f5573657220616c72656164792065786973747320616e6420697320766572696660008201527f6965640000000000000000000000000000000000000000000000000000000000602082015250565b60006114ba602383611274565b91506114c58261145e565b604082019050919050565b600060208201905081810360008301526114e9816114ad565b9050919050565b7f4e487b7100000000000000000000000000000000000000000000000000000000600052602260045260246000fd5b6000600282049050600182168061153757607f821691505b60208210810361154a576115496114f0565b5b50919050565b60008190508160005260206000209050919050565b60006020601f8301049050919050565b600082821b905092915050565b6000600883026115b27fffffffffffffffffffffffffffffffffffffffffffffffffffffffffffffffff82611575565b6115bc8683611575565b95508019841693508086168417925050509392505050565b6000819050919050565b60006115f96115f46115ef84610ef7565b6115d4565b610ef7565b9050919050565b6000819050919050565b611613836115de565b61162761161f82611600565b848454611582565b825550505050565b600090565b61163c61162f565b61164781848461160a565b505050565b5b8181101561166b57611660600082611634565b60018101905061164d565b5050565b601f8211156116b05761168181611550565b61168a84611565565b81016020851015611699578190505b6116ad6116a585611565565b83018261164c565b50505b505050565b600082821c905092915050565b60006116d3600019846008026116b5565b1980831691505092915050565b60006116ec83836116c2565b9150826002028217905092915050565b61170582611269565b67ffffffffffffffff81111561171e5761171d610dcc565b5b611728825461151f565b61173382828561166f565b600060209050601f8311600181146117665760008415611754578287015190505b61175e85826116e0565b8655506117c6565b601f19841661177486611550565b60005b8281101561179c57848901518255600182019150602085019450602081019050611777565b868310156117b957848901516117b5601f8916826116c2565b8355505b6001600288020188555050505b505050505050565b7f4e487b7100000000000000000000000000000000000000000000000000000000600052601160045260246000fd5b600061180882610ef7565b915061181383610ef7565b925082820390508181111561182b5761182a6117ce565b5b92915050565b7f4164647265737320616c726561647920636c61696d6564000000000000000000600082015250565b6000611867601783611274565b915061187282611831565b602082019050919050565b600060208201905081810360008301526118968161185a565b9050919050565b7f496e76616c6964204d65726b6c652050726f6f662e0000000000000000000000600082015250565b60006118d3601583611274565b91506118de8261189d565b602082019050919050565b60006020820190508181036000830152611902816118c6565b9050919050565b7f5573657220646f6573206e6f74206578697374206f72206973206e6f7420766560008201527f7269666965640000000000000000000000000000000000000000000000000000602082015250565b6000611965602683611274565b915061197082611909565b604082019050919050565b6000602082019050818103600083015261199481611958565b9050919050565b600081905092915050565b60006119b182611269565b6119bb818561199b565b93506119cb818560208601611285565b80840191505092915050565b60006119e382846119a6565b915081905092915050565b600081546119fb8161151f565b611a05818661199b565b94506001821660008114611a205760018114611a3557611a68565b60ff1983168652811515820286019350611a68565b611a3e85611550565b60005b83811015611a6057815481890152600182019150602081019050611a41565b838801955050505b50505092915050565b6000611a7d82846119ee565b915081905092915050565b7f55736572206e6f7420616c6c6f77656400000000000000000000000000000000600082015250565b6000611abe601083611274565b9150611ac982611a88565b602082019050919050565b60006020820190508181036000830152611aed81611ab1565b9050919050565b7f4e487b7100000000000000000000000000000000000000000000000000000000600052601260045260246000fd5b6000611b2e82610ef7565b9150611b3983610ef7565b925082611b4957611b48611af4565b5b828204905092915050565b6000611b5f82610ef7565b9150611b6a83610ef7565b9250828201905080821115611b8257611b816117ce565b5b92915050565b7f556e646572203138000000000000000000000000000000000000000000000000600082015250565b6000611bbe600883611274565b9150611bc982611b88565b602082019050919050565b60006020820190508181036000830152611bed81611bb1565b9050919050565b7f4e487b7100000000000000000000000000000000000000000000000000000000600052603260045260246000fd5b6000611c2e82610ef7565b91507fffffffffffffffffffffffffffffffffffffffffffffffffffffffffffffffff8203611c6057611c5f6117ce565b5b60018201905091905056fea2646970667358221220608be65232c9d81bfe944d7c02cd67ef913aa522b279ddcfba8c333137de7cde64736f6c63430008140033",
  "linkReferences": {},
  "deployedLinkReferences": {}
}